:02000000D12805
:100008000800083033190130A300A2013608840023
:100018003408482034088004CE2084130005FF3EAD
:10002800331DA20C3319A20D32306220A30B0C2809
:1000380022080314CC28A200083033190130A30089
:10004800A20C3608840034084820340803188004B9
:100058003730622034088004A30B24280314CC28EA
:10006800B31CCC283A28B300331CCC2836088400AB
:10007800340848200130A100E030632034088004AF
:100088000130A100E0306328FF3A80054B2884172F
:100098008005CC2883161C141A0883169B0ACC28C2
:1000A800030183169A001C1555309D00AA309D0047
:1000B8009C149C185D281C119B0ACC28A101E83EC1
:1000C800A000A109FC30031C6C28A00703186928AC
:1000D800A0076400A10F692820187228A01C7628A0
:1000E800000076280800013EA7000A30A200A301FC
:1000F8009A20A70B7C2824080800A20001308A282F
:10010800A20006308A28A20004308A28A800230802
:100118002102031D9128220820020430031801300F
:10012800031902302805031DFF30CC28A501A401BE
:100138001030A600210DA40DA50D2208A402230845
:10014800031C230FA5020318B0282208A4072308BC
:100158000318230FA5070310A00DA10DA60B9E28B9
:100168002008CC281030A800A101A001A70CA60CDB
:10017800031CC4282208A00723080318230FA1077B
:10018800A10CA00CA50CA40CA80BBA282408CC28F8
:10019800831303138312640008008316B8308500A4
:1001A800860183128501860107309F008B17DF289F
:1001B8008B1B0800CF2CDC208316033081008312B0
:1001C800DC20A0308B00DC2063308100DC20CD10E7
:1001D800DC20CE22DC208421DC204A21DC2083168E
:1001E8009B0183124E20CB00DC20831601309B003C
:1001F80083124E20CA00DC20831602309B00831233
:100208004E20D100DC20640064304B02031C0D2911
:10021800CB01DC2064000A304A02031C1429CA01FD
:10022800DC20640033305102031C1B29D101DC207F
:100238004B08A600A7010A30A200A301B620C200FD
:100248002508C3004A084207C40043080318013EB2
:10025800C500DC2051084402C0004508031CFF3ECD
:10026800C100DC203622DC20CD14DC204D16DC2039
:10027800D301DC205D22DC204A21DC20F121DC20B6
:1002880064004D1D4829542BDC203D29DC20053015
:10029800B6008030B40001303720CC301F20443005
:1002A8001F203420DC200530B6008030B400043034
:1002B80037200520013903194D10031D4D14342032
:1002C800DC2064004D1C5629DC200530B600803047
:1002D800B40001303720CC301F20BE301F2034201E
:1002E800DC200530B6008030B4000230372005200D
:1002F800BA000520BB003420DC20BC21DC2008002B
:10030800DC200530B6008030B40001303720CC3016
:100318001F204E301F20FF301F20FF301F207F304E
:100328001F203420DC200530B6008030B4000130B6
:100338003720CC301F2048301F203420DC200530E7
:10034800B6008030B40001303720CC301F20B830E0
:100358001F203420DC200530B6008030B400013086
:100368003720CC301F20BE301F203420DC2008006E
:10037800DC202B30C900DC206400BB1DD329DC2025
:100388002D30C900DC203A09C2003B09C300023005
:100398004207BA0043080318013EBB00DC20DC20FA
:1003A8003A08A6003B08A7000A30A200A301B6201D
:1003B800C2002508C3004208A0004308A10010306D
:1003C800A200A3019A20B8002108B900DC20080087
:1003D800DC206300ED29DC200800DC204008A000B8
:1003E8004108A1003908A30038088720031D0E2AF8
:1003F800DC20D30ADC20640003305302031C0D2ADE
:10040800DC200330D300DC20051783160513831284
:10041800DC20DC20DC203808A0003908A1004508D1
:10042800A30044088720031D212ADC20D301DC20F7
:100438000513831605138312DC20DC200800DC205A
:10044800BC01BD013C08A0003D08A100A3019630F5
:100458008120031D342ADC20BC0A0319BD0F262A7B
:10046800DC200800DC20BC01BD013C08A0003D08E0
:10047800A1002E30A300E0308120031D482ADC2093
:10048800BC0A0319BD0F392ADC200800DC20BC0196
:10049800BD013C08A0003D08A100A3017D308120DA
:1004A800031D5B2ADC20BC0A0319BD0F4D2ADC2082
:1004B8000800DC203808A0003908A10000307720A7
:1004C800D500DC20FA22DC204F08C600DC203808E2
:1004D800A0003908A10001307720D500DC20FA22DD
:1004E800DC204F08C700DC203808A0003908A1002C
:1004F80002307720D500DC20FA22DC204F08C80023
:10050800DC200800DC200E30D500DC20FA22DC20BC
:100518004F08C600DC200D30D500DC20FA22DC2094
:100528004F08C700DC200530D500DC20FA22DC208B
:100538004F08C800DC200800DC204408A00045085B
:10054800A10000307720D500DC20FA22DC204F08FB
:10055800C600DC206400CD1DB22AC601DC20440898
:10056800A0004508A10001307720D500DC20FA2240
:10057800DC204F08C700DC204408A0004508A10083
:1005880002307720D500DC20FA22DC204F08C80092
:10059800DC200800DC204030C600DC204030C700EA
:1005A800DC204030C800DC200800DC205108A00016
:1005B800A10100307720D500DC20FA22DC204F088A
:1005C800C600DC206400CD1DEA2AC601DC205108E3
:1005D800A000A10101307720D500DC20FA22DC2020
:1005E8004F08C700DC20C801DC200800DC205508C3
:1005F8000E3C031C182B0223CF00182B03308A0053
:100608005508093E03188A0A82003F3406345B34D1
:100618004F3466346D347D3407347F346F3463343B
:100628003934403479347834DC200800DC20640024
:100638004D1D202BDC201B2BDC204408A000450886
:10064800A1000A30A200A3019A20CB00DC204408B4
:10065800A0004508A1000A30A200A3019A2024089E
:10066800CA00DC2083169B0183124B085520DC202E
:1006780002306220DC20831601309B0083124A0876
:100688005520DC2002306220DC20831602309B00DB
:10069800831251085520DC2002306220DC20EA2831
:1006A800DC2064004D1D5A2BDC20552BDC20CD109E
:1006B800DC208622DC203622DC2083169B01831274
:1006C8004E20CB00DC20831601309B0083124E2085
:1006D800CA00DC204B08A600A7010A30A200A3012B
:1006E800B620C2002508C3004A084207C4004308D0
:1006F8000318013EC500DC20CD14DC20D301DC202A
:10070800D201DC204D12DC206400051AD12BDC203C
:100718004D16DC20CD11DC20D201DC20C40A0319DF
:10072800C50ADC206400051ABE2BDC20D30ADC20B5
:100738002322DC20640029305302031CAD2BDC206B
:100748003230D300DC20C40A0319C50ADC20232276
:10075800DC20DC20A022DC204408A0004508A10001
:100768000330A300DE308420031DBC2BC401C50167
:10077800DC20962BDC20D301DC204408A0004508AF
:10078800A1000330A300E7308420031DCF2BDE3007
:10079800C4000330C500DC20D42BDC204D12DC2043
:1007A800DC2064008519262CDC204D16DC20CD11B8
:1007B800DC20D201DC200130C4020030031C013EE1
:1007C800C502DC2064008519132CDC20D30ADC2048
:1007D8002322DC20640029305302031C002CDC2077
:1007E8003230D300DC200130C4020030031C013E4B
:1007F800C502DC202322DC20DC20A022DC204408E7
:10080800A0004508A1000330A300E7308420031DA1
:10081800112CDE30C4000330C500DC20E62BDC20C0
:10082800D301DC204408A0004508A1000330A30040
:10083800E7308420031D242CDE30C4000330C500BB
:10084800DC20292CDC204D12DC20DC2064004D1D2E
:10085800302CDC20342CDC20DC20A022DC20872B70
:10086800DC2064004D1D3A2CDC20352CDC2083165E
:1008780002309B0083124E20D100DC20640033300C
:100888005102031C482CD101DC20CD14DC20D201FC
:10089800DC20D922DC206400051A882CDC204D16C7
:1008A800DC20D201DC20CD11DC20D10ADC20640060
:1008B800051A7C2CDC20D30ADC202322DC206400EF
:1008C80029305302031C702CDC202830D300DC2094
:1008D800D10ADC204A22DC20DC20D922DC2064007A
:1008E80032305102031C7A2C3230D100DC205B2CD0
:1008F800DC20D301DC20640032305102031C862C3A
:100908003230D100DC208B2CDC204D12DC20DC20A6
:1009180064008519C32CDC204D16DC20CD11DC20A9
:10092800D201DC20D103DC2064008519B82CDC203E
:10093800D30ADC202322DC20640029305302031C64
:10094800AD2CDC202830D300DC20D103DC204A2267
:10095800DC20DC20D922DC20640033305102031C67
:10096800B62CD101DC20982CDC20D301DC206400DB
:1009780033305102031CC12CD101DC20C62CDC20F1
:100988004D12DC20DC2064004D1DCD2CDC201A2B00
:10099800DC20DC204C2C6400851AD42C4D15D52C79
:1009A8004D1164004D1AE12CD20A640078305202CD
:1009B800031CE02CCD15E12CCD116400F03052025F
:1009C800031CE72CD201CE0A640003304E02031C3C
:1009D800EE2CCE0164004E08003C031DF92C0511D5
:1009E8004608860005140230622064004E08013C67
:1009F800031D082D051047088600CD188617CD1C45
:100A0800861385140230622064004E08023C031DE0
:100A1800132D851048088600051502306220A03085
:0C0A280081000B110900DC206300182D78
:02400E00543F1D
:00000001FF